S0150000547261666669635F4C696768742E73726563F9
S11300000C942A000C9434000C9434000C943400A6
S11300100C9434000C9434000C9434000C9434008C
S11300200C9434000C9434000C9434000C9434007C
S11300300C9434000C9434000C9434000C9434006C
S11300400C9434000C9434000C9434000C9434005C
S11300500C94340011241FBECFE5D8E0DEBFCDBF21
S11300600E94C0000C94FC010C94000060E081E448
S11300700E94AB0061E081E40E94AB0062E081E495
S11300800E94AB0060E082E40E94AB0061E082E485
S11300900E94AB0062E082E40E94AB0060E081E475
S11300A00E94B20062E082E40E94B20081E090E02B
S11300B00E94DD0160E081E40E94B90062E082E414
S11300C00E94B900C0E0D0E011C061E081E40E9468
S11300D0B20061E082E40E94B20061E081E40E9427
S11300E0B90061E082E40E94B9002196C530D105CF
S11300F064F361E081E40E94B90061E082E40E945B
S1130100B90062E081E40E94B20060E082E40E94EF
S1130110B20062E081E40E94B90060E082E40E94DF
S1130120B900C0E0D0E011C061E081E40E94B200F7
S113013061E082E40E94B20061E081E40E94B900BF
S113014061E082E40E94B9002196C530D10564F3D0
S1130150A5CF0E943600982F862F41E0692F0E9478
S1130160C5000895982F862F41E0692F0E94500101
S11301700895982F862F40E0692F0E94500108951A
S11301800E94A90080E090E00895623459F118F4C7
S1130190613441F00895633409F444C0643409F4CB
S11301A060C0089541110EC04AB321E030E0B901A6
S11301B002C0660F771F8A95E2F7CB0180958423EE
S11301C08ABB0895413009F06AC04AB321E030E0A7
S11301D0B90102C0660F771F8A95E2F7CB01842B21
S11301E08ABB089541110EC047B321E030E0B90144
S11301F002C0660F771F8A95E2F7CB0180958423AE
S113020087BB0895413009F04AC047B321E030E08C
S1130210B90102C0660F771F8A95E2F7CB01842BE0
S113022087BB089541110EC044B321E030E0B90109
S113023002C0660F771F8A95E2F7CB01809584236D
S113024084BB0895413059F544B321E030E0B9014D
S113025002C0660F771F8A95E2F7CB01842B84BB1B
S1130260089541110EC041B321E030E0B90102C04C
S1130270660F771F8A95E2F7CB018095842381BBB3
S11302800895413061F441B321E030E0B90102C086
S1130290660F771F8A95E2F7CB01842B81BB089503
S11302A0623459F118F4613441F00895633409F467
S11302B044C0643409F460C0089541110EC04BB3C6
S11302C021E030E0B90102C0660F771F8A95E2F79A
S11302D0CB01809584238BBB0895413009F06AC01B
S11302E04BB321E030E0B90102C0660F771F8A9555
S11302F0E2F7CB01842B8BBB089541110EC048B3A8
S113030021E030E0B90102C0660F771F8A95E2F759
S1130310CB018095842388BB0895413009F04AC0FD
S113032048B321E030E0B90102C0660F771F8A9517
S1130330E2F7CB01842B88BB089541110EC045B36D
S113034021E030E0B90102C0660F771F8A95E2F719
S1130350CB018095842385BB0895413059F545B37D
S113036021E030E0B90102C0660F771F8A95E2F7F9
S1130370CB01842B85BB089541110EC042B321E00B
S113038030E0B90102C0660F771F8A95E2F7CB010E
S11303908095842382BB0895413061F442B321E007
S11303A030E0B90102C0660F771F8A95E2F7CB01EE
S11303B0842B82BB089513BE0895FC0112BE83B73B
S11303C0816083BF20E030E008C008B600FEFDCFA6
S11303D098B79E7F98BF2F5F3F4F64EF7EE7E69FFD
S11303E0A001E79F500DF69F500D112424173507E7
S10F03F060F30E94DB010895F894FFCF35
S9030000FC
